{
  "address": "0xab76119E5B3863c5d297693384777d5231E0Aeb2",
  "abi": [
    {
      "inputs": [
        {
          "internalType": "address",
          "name": "gateway_",
          "type": "address"
        },
        {
          "internalType": "address",
          "name": "gasService_",
          "type": "address"
        }
      ],
      "stateMutability": "nonpayable",
      "type": "constructor"
    },
    {
      "inputs": [],
      "name": "InvalidAddress",
      "type": "error"
    },
    {
      "inputs": [],
      "name": "NotApprovedByGateway",
      "type": "error"
    },
    {
      "anonymous": false,
      "inputs": [
        {
          "components": [
            {
              "internalType": "bytes",
              "name": "commP",
              "type": "bytes"
            },
            {
              "internalType": "uint64",
              "name": "size",
              "type": "uint64"
            },
            {
              "internalType": "string",
              "name": "location",
              "type": "string"
            },
            {
              "internalType": "uint256",
              "name": "amount",
              "type": "uint256"
            },
            {
              "internalType": "contract IERC20",
              "name": "token",
              "type": "address"
            }
          ],
          "indexed": false,
          "internalType": "struct OnRampSource.Offer",
          "name": "offer",
          "type": "tuple"
        },
        {
          "indexed": false,
          "internalType": "uint64",
          "name": "id",
          "type": "uint64"
        }
      ],
      "name": "DataReady",
      "type": "event"
    },
    {
      "inputs": [
        {
          "internalType": "uint64",
          "name": "",
          "type": "uint64"
        }
      ],
      "name": "aggregationPayout",
      "outputs": [
        {
          "internalType": "address",
          "name": "",
          "type": "address"
        }
      ],
      "stateMutability": "view",
      "type": "function"
    },
    {
      "inputs": [
        {
          "internalType": "uint64",
          "name": "",
          "type": "uint64"
        },
        {
          "internalType": "uint256",
          "name": "",
          "type": "uint256"
        }
      ],
      "name": "aggregations",
      "outputs": [
        {
          "internalType": "uint64",
          "name": "",
          "type": "uint64"
        }
      ],
      "stateMutability": "view",
      "type": "function"
    },
    {
      "inputs": [
        {
          "internalType": "bytes",
          "name": "",
          "type": "bytes"
        }
      ],
      "name": "commPToAggregateID",
      "outputs": [
        {
          "internalType": "uint64",
          "name": "",
          "type": "uint64"
        }
      ],
      "stateMutability": "view",
      "type": "function"
    },
    {
      "inputs": [
        {
          "internalType": "bytes32",
          "name": "commandId",
          "type": "bytes32"
        },
        {
          "internalType": "string",
          "name": "sourceChain",
          "type": "string"
        },
        {
          "internalType": "string",
          "name": "sourceAddress",
          "type": "string"
        },
        {
          "internalType": "bytes",
          "name": "payload",
          "type": "bytes"
        }
      ],
      "name": "execute",
      "outputs": [],
      "stateMutability": "nonpayable",
      "type": "function"
    },
    {
      "inputs": [
        {
          "internalType": "bytes32",
          "name": "commandId",
          "type": "bytes32"
        },
        {
          "internalType": "string",
          "name": "sourceChain",
          "type": "string"
        },
        {
          "internalType": "string",
          "name": "sourceAddress",
          "type": "string"
        },
        {
          "internalType": "bytes",
          "name": "payload",
          "type": "bytes"
        },
        {
          "internalType": "string",
          "name": "tokenSymbol",
          "type": "string"
        },
        {
          "internalType": "uint256",
          "name": "amount",
          "type": "uint256"
        }
      ],
      "name": "executeWithToken",
      "outputs": [],
      "stateMutability": "nonpayable",
      "type": "function"
    },
    {
      "inputs": [],
      "name": "gasService",
      "outputs": [
        {
          "internalType": "contract IAxelarGasService",
          "name": "",
          "type": "address"
        }
      ],
      "stateMutability": "view",
      "type": "function"
    },
    {
      "inputs": [],
      "name": "gateway",
      "outputs": [
        {
          "internalType": "contract IAxelarGateway",
          "name": "",
          "type": "address"
        }
      ],
      "stateMutability": "view",
      "type": "function"
    },
    {
      "inputs": [
        {
          "components": [
            {
              "internalType": "bytes",
              "name": "commP",
              "type": "bytes"
            },
            {
              "internalType": "uint64",
              "name": "size",
              "type": "uint64"
            },
            {
              "internalType": "string",
              "name": "location",
              "type": "string"
            },
            {
              "internalType": "uint256",
              "name": "amount",
              "type": "uint256"
            },
            {
              "internalType": "contract IERC20",
              "name": "token",
              "type": "address"
            }
          ],
          "internalType": "struct OnRampSource.Offer",
          "name": "offer",
          "type": "tuple"
        },
        {
          "internalType": "string",
          "name": "destinationChain",
          "type": "string"
        },
        {
          "internalType": "string",
          "name": "destinationAddress",
          "type": "string"
        }
      ],
      "name": "offerData",
      "outputs": [
        {
          "internalType": "uint64",
          "name": "",
          "type": "uint64"
        }
      ],
      "stateMutability": "payable",
      "type": "function"
    },
    {
      "inputs": [
        {
          "internalType": "uint64",
          "name": "",
          "type": "uint64"
        }
      ],
      "name": "offers",
      "outputs": [
        {
          "internalType": "bytes",
          "name": "commP",
          "type": "bytes"
        },
        {
          "internalType": "uint64",
          "name": "size",
          "type": "uint64"
        },
        {
          "internalType": "string",
          "name": "location",
          "type": "string"
        },
        {
          "internalType": "uint256",
          "name": "amount",
          "type": "uint256"
        },
        {
          "internalType": "contract IERC20",
          "name": "token",
          "type": "address"
        }
      ],
      "stateMutability": "view",
      "type": "function"
    },
    {
      "inputs": [
        {
          "internalType": "uint64",
          "name": "",
          "type": "uint64"
        }
      ],
      "name": "provenAggregations",
      "outputs": [
        {
          "internalType": "bool",
          "name": "",
          "type": "bool"
        }
      ],
      "stateMutability": "view",
      "type": "function"
    }
  ],
  "transactionHash": "0x59cc3b3d1abb2b0937bc9da43cd2e95fd5c71677da39537b48e0547c1cd86cd2",
  "args": [
    "0xe432150cce91c13a887f7D836923d5597adD8E31",
    "0xbE406F0189A0B4cf3A05C286473D23791Dd44Cc6"
  ],
  "numDeployments": 2,
  "solcInputHash": "4a6864f662c19b0a1f2826a50783ced4",
  "bytecode": "0x60a0604052600080546001600160401b03191660011790553480156200002457600080fd5b5060405162001746380380620017468339810160408190526200004791620000ba565b816001600160a01b038116620000705760405163e6c4247b60e01b815260040160405180910390fd5b6001600160a01b03908116608052600280546001600160a01b0319169290911691909117905550620000f2565b80516001600160a01b0381168114620000b557600080fd5b919050565b60008060408385031215620000ce57600080fd5b620000d9836200009d565b9150620000e9602084016200009d565b90509250929050565b608051611624620001226000396000818160a8015281816102ad015281816104e701526106c801526116246000f3fe6080604052600436106100915760003560e01c8063665496381161005957806366549638146101905780636a22d8cc146101d0578063999a81cf146101f0578063cf71737814610249578063e6706e1d1461025c57600080fd5b8063116191b6146100965780631a98b2e0146100e75780632353b420146101095780632ebb620c1461013f5780634916065814610170575b600080fd5b3480156100a257600080fd5b506100ca7f000000000000000000000000000000000000000000000000000000000000000081565b6040516001600160a01b0390911681526020015b60405180910390f35b3480156100f357600080fd5b50610107610102366004610ad4565b61027c565b005b34801561011557600080fd5b506100ca610124366004610bc5565b6004602052600090815260409020546001600160a01b031681565b34801561014b57600080fd5b5061015f61015a366004610bc5565b61035f565b6040516100de959493929190610c39565b34801561017c57600080fd5b5061010761018b366004610c90565b6104b6565b34801561019c57600080fd5b506101c06101ab366004610bc5565b60056020526000908152604090205460ff1681565b60405190151581526020016100de565b3480156101dc57600080fd5b506002546100ca906001600160a01b031681565b3480156101fc57600080fd5b5061023161020b366004610dde565b80516020818301810180516006825292820191909301209152546001600160401b031681565b6040516001600160401b0390911681526020016100de565b610231610257366004610e1a565b61059e565b34801561026857600080fd5b50610231610277366004610eb6565b61077b565b6000858560405161028e929190610ee2565b604051908190038120631876eed960e01b825291506001600160a01b037f00000000000000000000000000000000000000000000000000000000000000001690631876eed9906102f2908e908e908e908e908e9089908d908d908d90600401610f1b565b6020604051808303816000875af1158015610311573d6000803e3d6000fd5b505050506040513d601f19601f820116820180604052508101906103359190610f7a565b61035257604051631403112d60e21b815260040160405180910390fd5b5050505050505050505050565b60016020526000908152604090208054819061037a90610f9c565b80601f01602080910402602001604051908101604052809291908181526020018280546103a690610f9c565b80156103f35780601f106103c8576101008083540402835291602001916103f3565b820191906000526020600020905b8154815290600101906020018083116103d657829003601f168201915b505050600184015460028501805494956001600160401b0390921694919350915061041d90610f9c565b80601f016020809104026020016040519081016040528092919081815260200182805461044990610f9c565b80156104965780601f1061046b57610100808354040283529160200191610496565b820191906000526020600020905b81548152906001019060200180831161047957829003601f168201915b5050505060038301546004909301549192916001600160a01b0316905085565b600082826040516104c8929190610ee2565b604051908190038120635f6970c360e01b825291506001600160a01b037f00000000000000000000000000000000000000000000000000000000000000001690635f6970c390610526908b908b908b908b908b908990600401610fd6565b6020604051808303816000875af1158015610545573d6000803e3d6000fd5b505050506040513d601f19601f820116820180604052508101906105699190610f7a565b61058657604051631403112d60e21b815260040160405180910390fd5b6105948787878787876107c7565b5050505050505050565b6000805481906001600160401b031681806105b88361102d565b91906101000a8154816001600160401b0302191690836001600160401b0316021790555090508660016000836001600160401b03166001600160401b03168152602001908152602001600020818161061091906111dd565b9050506000878260405160200161062892919061140a565b60408051601f19818403018152919052905034156106b157600254604051630c93e3bb60e01b81526001600160a01b0390911690630c93e3bb90349061067e9030908c908c908c908c908a903390600401611455565b6000604051808303818588803b15801561069757600080fd5b505af11580156106ab573d6000803e3d6000fd5b50505050505b604051631c92115f60e01b81526001600160a01b037f00000000000000000000000000000000000000000000000000000000000000001690631c92115f90610705908a908a908a908a9088906004016114b7565b600060405180830381600087803b15801561071f57600080fd5b505af1158015610733573d6000803e3d6000fd5b505050507f995fecdf50d6a895827999e0cd16688138dfa8b7aff1bd2f69653b9e3e5d740c88836040516107689291906114fe565b60405180910390a1509695505050505050565b6003602052816000526040600020818154811061079757600080fd5b9060005260206000209060049182820401919006600802915091509054906101000a90046001600160401b031681565b6000806107d683850185611529565b60408051808201909152600f81526e141c9bdd9951185d1854dd1bdc9959608a1b60209182015282519083012091935091507f04987eac5fa3565f280bb9411eb6dfef5300c1d74f41f8abed632cb595edb54f01610a4d576000819050600060068260405161084591906115a3565b908152604051908190036020019020546001600160401b0316905060008190036108ac5760405162461bcd60e51b81526020600482015260136024820152721059d9dc9959d85d19481b9bdd08199bdd5b99606a1b60448201526064015b60405180910390fd5b60005b6001600160401b038216600090815260036020526040902054811015610a24576001600160401b03821660009081526003602052604081208054839081106108f9576108f96115bf565b6000918252602080832060048084049091015460039384166008026101000a90046001600160401b0390811680865260018452604080872080850154938b16885294849052958690205494840154955163a9059cbb60e01b81526001600160a01b039586169381019390935260248301959095529394509092919091169063a9059cbb906044016020604051808303816000875af115801561099f573d6000803e3d6000fd5b505050506040513d601f19601f820116820180604052508101906109c39190610f7a565b610a0f5760405162461bcd60e51b815260206004820152601760248201527f5061796d656e74207472616e73666572206661696c656400000000000000000060448201526064016108a3565b50508080610a1c906115d5565b9150506108af565b506001600160401b03166000908152600560205260409020805460ff1916600117905550610594565b60405162461bcd60e51b8152602060048201526014602482015273556e6b6e6f776e206d657373616765207479706560601b60448201526064016108a3565b60008083601f840112610a9e57600080fd5b5081356001600160401b03811115610ab557600080fd5b602083019150836020828501011115610acd57600080fd5b9250929050565b60008060008060008060008060008060c08b8d031215610af357600080fd5b8a35995060208b01356001600160401b0380821115610b1157600080fd5b610b1d8e838f01610a8c565b909b50995060408d0135915080821115610b3657600080fd5b610b428e838f01610a8c565b909950975060608d0135915080821115610b5b57600080fd5b610b678e838f01610a8c565b909750955060808d0135915080821115610b8057600080fd5b50610b8d8d828e01610a8c565b9150809450508092505060a08b013590509295989b9194979a5092959850565b6001600160401b0381168114610bc257600080fd5b50565b600060208284031215610bd757600080fd5b8135610be281610bad565b9392505050565b60005b83811015610c04578181015183820152602001610bec565b50506000910152565b60008151808452610c25816020860160208601610be9565b601f01601f19169290920160200192915050565b60a081526000610c4c60a0830188610c0d565b6001600160401b03871660208401528281036040840152610c6d8187610c0d565b606084019590955250506001600160a01b03919091166080909101529392505050565b60008060008060008060006080888a031215610cab57600080fd5b8735965060208801356001600160401b0380821115610cc957600080fd5b610cd58b838c01610a8c565b909850965060408a0135915080821115610cee57600080fd5b610cfa8b838c01610a8c565b909650945060608a0135915080821115610d1357600080fd5b50610d208a828b01610a8c565b989b979a50959850939692959293505050565b634e487b7160e01b600052604160045260246000fd5b60006001600160401b0380841115610d6357610d63610d33565b604051601f8501601f19908116603f01168101908282118183101715610d8b57610d8b610d33565b81604052809350858152868686011115610da457600080fd5b858560208301376000602087830101525050509392505050565b600082601f830112610dcf57600080fd5b610be283833560208501610d49565b600060208284031215610df057600080fd5b81356001600160401b03811115610e0657600080fd5b610e1284828501610dbe565b949350505050565b600080600080600060608688031215610e3257600080fd5b85356001600160401b0380821115610e4957600080fd5b9087019060a0828a031215610e5d57600080fd5b90955060208701359080821115610e7357600080fd5b610e7f89838a01610a8c565b90965094506040880135915080821115610e9857600080fd5b50610ea588828901610a8c565b969995985093965092949392505050565b60008060408385031215610ec957600080fd5b8235610ed481610bad565b946020939093013593505050565b8183823760009101908152919050565b81835281816020850137506000828201602090810191909152601f909101601f19169091010190565b89815260c060208201526000610f3560c083018a8c610ef2565b8281036040840152610f4881898b610ef2565b90508660608401528281036080840152610f63818688610ef2565b9150508260a08301529a9950505050505050505050565b600060208284031215610f8c57600080fd5b81518015158114610be257600080fd5b600181811c90821680610fb057607f821691505b602082108103610fd057634e487b7160e01b600052602260045260246000fd5b50919050565b868152608060208201526000610ff0608083018789610ef2565b8281036040840152611003818688610ef2565b915050826060830152979650505050505050565b634e487b7160e01b600052601160045260246000fd5b60006001600160401b0380831681810361104957611049611017565b6001019392505050565b6000808335601e1984360301811261106a57600080fd5b8301803591506001600160401b0382111561108457600080fd5b602001915036819003821315610acd57600080fd5b601f8211156110e357600081815260208120601f850160051c810160208610156110c05750805b601f850160051c820191505b818110156110df578281556001016110cc565b5050505b505050565b600081356110f581610bad565b92915050565b6001600160401b0383111561111257611112610d33565b611126836111208354610f9c565b83611099565b6000601f84116001811461115a57600085156111425750838201355b600019600387901b1c1916600186901b1783556111b4565b600083815260209020601f19861690835b8281101561118b578685013582556020948501946001909201910161116b565b50868210156111a85760001960f88860031b161c19848701351681555b505060018560011b0183555b5050505050565b6001600160a01b0381168114610bc257600080fd5b600081356110f5816111bb565b6111e78283611053565b6001600160401b038111156111fe576111fe610d33565b6112128161120c8554610f9c565b85611099565b6000601f821160018114611246576000831561122e5750838201355b600019600385901b1c1916600184901b1785556112a0565b600085815260209020601f19841690835b828110156112775786850135825560209485019460019092019101611257565b50848210156112945760001960f88660031b161c19848701351681555b505060018360011b0185555b505050506112d46112b3602084016110e8565b600183016001600160401b0382166001600160401b03198254161781555050565b6112e16040830183611053565b6112ef8183600286016110fb565b50506060820135600382015561132e61130a608084016111d0565b6004830180546001600160a01b0319166001600160a01b0392909216919091179055565b5050565b6000808335601e1984360301811261134957600080fd5b83016020810192503590506001600160401b0381111561136857600080fd5b803603821315610acd57600080fd5b60006113838283611332565b60a0855261139560a086018284610ef2565b91505060208301356113a681610bad565b6001600160401b031660208501526113c16040840184611332565b85830360408701526113d4838284610ef2565b925050506060830135606085015260808301356113f0816111bb565b6001600160a01b0316608094909401939093525090919050565b60608152600960608201526844617461526561647960b81b608082015260a06020820152600061143d60a0830185611377565b90506001600160401b03831660408301529392505050565b600060018060a01b03808a16835260a0602084015261147860a08401898b610ef2565b838103604085015261148b81888a610ef2565b9050838103606085015261149f8187610c0d565b92505080841660808401525098975050505050505050565b6060815260006114cb606083018789610ef2565b82810360208401526114de818688610ef2565b905082810360408401526114f28185610c0d565b98975050505050505050565b6040815260006115116040830185611377565b90506001600160401b03831660208301529392505050565b6000806040838503121561153c57600080fd5b82356001600160401b038082111561155357600080fd5b818501915085601f83011261156757600080fd5b61157686833560208501610d49565b9350602085013591508082111561158c57600080fd5b5061159985828601610dbe565b9150509250929050565b600082516115b5818460208701610be9565b9190910192915050565b634e487b7160e01b600052603260045260246000fd5b6000600182016115e7576115e7611017565b506001019056fea26469706673582212207d15cd8e5c0ebaad77f32dc4aca2779cf16dca5a50d13b964bad652bfdbc7a4a64736f6c63430008140033",
  "devdoc": {
    "kind": "dev",
    "methods": {},
    "version": 1
  },
  "userdoc": {
    "kind": "user",
    "methods": {},
    "version": 1
  },
  "storageLayout": {
    "storage": [
      {
        "astId": 5178,
        "contract": "contracts/OnRampSource.sol:OnRampSource",
        "label": "nextOfferId",
        "offset": 0,
        "slot": "0",
        "type": "t_uint64"
      },
      {
        "astId": 5183,
        "contract": "contracts/OnRampSource.sol:OnRampSource",
        "label": "offers",
        "offset": 0,
        "slot": "1",
        "type": "t_mapping(t_uint64,t_struct(Offer)5168_storage)"
      },
      {
        "astId": 5186,
        "contract": "contracts/OnRampSource.sol:OnRampSource",
        "label": "gasService",
        "offset": 0,
        "slot": "2",
        "type": "t_contract(IAxelarGasService)655"
      },
      {
        "astId": 5191,
        "contract": "contracts/OnRampSource.sol:OnRampSource",
        "label": "aggregations",
        "offset": 0,
        "slot": "3",
        "type": "t_mapping(t_uint64,t_array(t_uint64)dyn_storage)"
      },
      {
        "astId": 5195,
        "contract": "contracts/OnRampSource.sol:OnRampSource",
        "label": "aggregationPayout",
        "offset": 0,
        "slot": "4",
        "type": "t_mapping(t_uint64,t_address)"
      },
      {
        "astId": 5199,
        "contract": "contracts/OnRampSource.sol:OnRampSource",
        "label": "provenAggregations",
        "offset": 0,
        "slot": "5",
        "type": "t_mapping(t_uint64,t_bool)"
      },
      {
        "astId": 5203,
        "contract": "contracts/OnRampSource.sol:OnRampSource",
        "label": "commPToAggregateID",
        "offset": 0,
        "slot": "6",
        "type": "t_mapping(t_bytes_memory_ptr,t_uint64)"
      }
    ],
    "types": {
      "t_address": {
        "encoding": "inplace",
        "label": "address",
        "numberOfBytes": "20"
      },
      "t_array(t_uint64)dyn_storage": {
        "base": "t_uint64",
        "encoding": "dynamic_array",
        "label": "uint64[]",
        "numberOfBytes": "32"
      },
      "t_bool": {
        "encoding": "inplace",
        "label": "bool",
        "numberOfBytes": "1"
      },
      "t_bytes_memory_ptr": {
        "encoding": "bytes",
        "label": "bytes",
        "numberOfBytes": "32"
      },
      "t_bytes_storage": {
        "encoding": "bytes",
        "label": "bytes",
        "numberOfBytes": "32"
      },
      "t_contract(IAxelarGasService)655": {
        "encoding": "inplace",
        "label": "contract IAxelarGasService",
        "numberOfBytes": "20"
      },
      "t_contract(IERC20)2598": {
        "encoding": "inplace",
        "label": "contract IERC20",
        "numberOfBytes": "20"
      },
      "t_mapping(t_bytes_memory_ptr,t_uint64)": {
        "encoding": "mapping",
        "key": "t_bytes_memory_ptr",
        "label": "mapping(bytes => uint64)",
        "numberOfBytes": "32",
        "value": "t_uint64"
      },
      "t_mapping(t_uint64,t_address)": {
        "encoding": "mapping",
        "key": "t_uint64",
        "label": "mapping(uint64 => address)",
        "numberOfBytes": "32",
        "value": "t_address"
      },
      "t_mapping(t_uint64,t_array(t_uint64)dyn_storage)": {
        "encoding": "mapping",
        "key": "t_uint64",
        "label": "mapping(uint64 => uint64[])",
        "numberOfBytes": "32",
        "value": "t_array(t_uint64)dyn_storage"
      },
      "t_mapping(t_uint64,t_bool)": {
        "encoding": "mapping",
        "key": "t_uint64",
        "label": "mapping(uint64 => bool)",
        "numberOfBytes": "32",
        "value": "t_bool"
      },
      "t_mapping(t_uint64,t_struct(Offer)5168_storage)": {
        "encoding": "mapping",
        "key": "t_uint64",
        "label": "mapping(uint64 => struct OnRampSource.Offer)",
        "numberOfBytes": "32",
        "value": "t_struct(Offer)5168_storage"
      },
      "t_string_storage": {
        "encoding": "bytes",
        "label": "string",
        "numberOfBytes": "32"
      },
      "t_struct(Offer)5168_storage": {
        "encoding": "inplace",
        "label": "struct OnRampSource.Offer",
        "members": [
          {
            "astId": 5158,
            "contract": "contracts/OnRampSource.sol:OnRampSource",
            "label": "commP",
            "offset": 0,
            "slot": "0",
            "type": "t_bytes_storage"
          },
          {
            "astId": 5160,
            "contract": "contracts/OnRampSource.sol:OnRampSource",
            "label": "size",
            "offset": 0,
            "slot": "1",
            "type": "t_uint64"
          },
          {
            "astId": 5162,
            "contract": "contracts/OnRampSource.sol:OnRampSource",
            "label": "location",
            "offset": 0,
            "slot": "2",
            "type": "t_string_storage"
          },
          {
            "astId": 5164,
            "contract": "contracts/OnRampSource.sol:OnRampSource",
            "label": "amount",
            "offset": 0,
            "slot": "3",
            "type": "t_uint256"
          },
          {
            "astId": 5167,
            "contract": "contracts/OnRampSource.sol:OnRampSource",
            "label": "token",
            "offset": 0,
            "slot": "4",
            "type": "t_contract(IERC20)2598"
          }
        ],
        "numberOfBytes": "160"
      },
      "t_uint256": {
        "encoding": "inplace",
        "label": "uint256",
        "numberOfBytes": "32"
      },
      "t_uint64": {
        "encoding": "inplace",
        "label": "uint64",
        "numberOfBytes": "8"
      }
    }
  }
}